{
  "_format": "hh-sol-artifact-1",
  "contractName": "RewardToken",
  "sourceName": "contracts/RewardToken.sol",
  "abi": [
    {
      "inputs": [
        {
          "internalType": "address",
          "name": "initialOwner",
          "type": "address"
        }
      ],
      "stateMutability": "nonpayable",
      "type": "constructor"
    },
    {
      "inputs": [
        {
          "internalType": "address",
          "name": "spender",
          "type": "address"
        },
        {
          "internalType": "uint256",
          "name": "allowance",
          "type": "uint256"
        },
        {
          "internalType": "uint256",
          "name": "needed",
          "type": "uint256"
        }
      ],
      "name": "ERC20InsufficientAllowance",
      "type": "error"
    },
    {
      "inputs": [
        {
          "internalType": "address",
          "name": "sender",
          "type": "address"
        },
        {
          "internalType": "uint256",
          "name": "balance",
          "type": "uint256"
        },
        {
          "internalType": "uint256",
          "name": "needed",
          "type": "uint256"
        }
      ],
      "name": "ERC20InsufficientBalance",
      "type": "error"
    },
    {
      "inputs": [
        {
          "internalType": "address",
          "name": "approver",
          "type": "address"
        }
      ],
      "name": "ERC20InvalidApprover",
      "type": "error"
    },
    {
      "inputs": [
        {
          "internalType": "address",
          "name": "receiver",
          "type": "address"
        }
      ],
      "name": "ERC20InvalidReceiver",
      "type": "error"
    },
    {
      "inputs": [
        {
          "internalType": "address",
          "name": "sender",
          "type": "address"
        }
      ],
      "name": "ERC20InvalidSender",
      "type": "error"
    },
    {
      "inputs": [
        {
          "internalType": "address",
          "name": "spender",
          "type": "address"
        }
      ],
      "name": "ERC20InvalidSpender",
      "type": "error"
    },
    {
      "inputs": [
        {
          "internalType": "address",
          "name": "owner",
          "type": "address"
        }
      ],
      "name": "OwnableInvalidOwner",
      "type": "error"
    },
    {
      "inputs": [
        {
          "internalType": "address",
          "name": "account",
          "type": "address"
        }
      ],
      "name": "OwnableUnauthorizedAccount",
      "type": "error"
    },
    {
      "anonymous": false,
      "inputs": [
        {
          "indexed": true,
          "internalType": "address",
          "name": "owner",
          "type": "address"
        },
        {
          "indexed": true,
          "internalType": "address",
          "name": "spender",
          "type": "address"
        },
        {
          "indexed": false,
          "internalType": "uint256",
          "name": "value",
          "type": "uint256"
        }
      ],
      "name": "Approval",
      "type": "event"
    },
    {
      "anonymous": false,
      "inputs": [
        {
          "indexed": true,
          "internalType": "address",
          "name": "previousOwner",
          "type": "address"
        },
        {
          "indexed": true,
          "internalType": "address",
          "name": "newOwner",
          "type": "address"
        }
      ],
      "name": "OwnershipTransferred",
      "type": "event"
    },
    {
      "anonymous": false,
      "inputs": [
        {
          "indexed": true,
          "internalType": "address",
          "name": "from",
          "type": "address"
        },
        {
          "indexed": true,
          "internalType": "address",
          "name": "to",
          "type": "address"
        },
        {
          "indexed": false,
          "internalType": "uint256",
          "name": "value",
          "type": "uint256"
        }
      ],
      "name": "Transfer",
      "type": "event"
    },
    {
      "inputs": [
        {
          "internalType": "address",
          "name": "owner",
          "type": "address"
        },
        {
          "internalType": "address",
          "name": "spender",
          "type": "address"
        }
      ],
      "name": "allowance",
      "outputs": [
        {
          "internalType": "uint256",
          "name": "",
          "type": "uint256"
        }
      ],
      "stateMutability": "view",
      "type": "function"
    },
    {
      "inputs": [
        {
          "internalType": "address",
          "name": "spender",
          "type": "address"
        },
        {
          "internalType": "uint256",
          "name": "value",
          "type": "uint256"
        }
      ],
      "name": "approve",
      "outputs": [
        {
          "internalType": "bool",
          "name": "",
          "type": "bool"
        }
      ],
      "stateMutability": "nonpayable",
      "type": "function"
    },
    {
      "inputs": [
        {
          "internalType": "address",
          "name": "account",
          "type": "address"
        }
      ],
      "name": "balanceOf",
      "outputs": [
        {
          "internalType": "uint256",
          "name": "",
          "type": "uint256"
        }
      ],
      "stateMutability": "view",
      "type": "function"
    },
    {
      "inputs": [
        {
          "internalType": "uint256",
          "name": "amount",
          "type": "uint256"
        }
      ],
      "name": "burn",
      "outputs": [],
      "stateMutability": "nonpayable",
      "type": "function"
    },
    {
      "inputs": [],
      "name": "decimals",
      "outputs": [
        {
          "internalType": "uint8",
          "name": "",
          "type": "uint8"
        }
      ],
      "stateMutability": "view",
      "type": "function"
    },
    {
      "inputs": [
        {
          "internalType": "address",
          "name": "to",
          "type": "address"
        },
        {
          "internalType": "uint256",
          "name": "amount",
          "type": "uint256"
        }
      ],
      "name": "mint",
      "outputs": [],
      "stateMutability": "nonpayable",
      "type": "function"
    },
    {
      "inputs": [],
      "name": "name",
      "outputs": [
        {
          "internalType": "string",
          "name": "",
          "type": "string"
        }
      ],
      "stateMutability": "view",
      "type": "function"
    },
    {
      "inputs": [],
      "name": "owner",
      "outputs": [
        {
          "internalType": "address",
          "name": "",
          "type": "address"
        }
      ],
      "stateMutability": "view",
      "type": "function"
    },
    {
      "inputs": [],
      "name": "recyclingCenter",
      "outputs": [
        {
          "internalType": "address",
          "name": "",
          "type": "address"
        }
      ],
      "stateMutability": "view",
      "type": "function"
    },
    {
      "inputs": [],
      "name": "renounceOwnership",
      "outputs": [],
      "stateMutability": "nonpayable",
      "type": "function"
    },
    {
      "inputs": [
        {
          "internalType": "address",
          "name": "_recyclingCenter",
          "type": "address"
        }
      ],
      "name": "setRecyclingCenter",
      "outputs": [],
      "stateMutability": "nonpayable",
      "type": "function"
    },
    {
      "inputs": [],
      "name": "symbol",
      "outputs": [
        {
          "internalType": "string",
          "name": "",
          "type": "string"
        }
      ],
      "stateMutability": "view",
      "type": "function"
    },
    {
      "inputs": [],
      "name": "totalSupply",
      "outputs": [
        {
          "internalType": "uint256",
          "name": "",
          "type": "uint256"
        }
      ],
      "stateMutability": "view",
      "type": "function"
    },
    {
      "inputs": [
        {
          "internalType": "address",
          "name": "to",
          "type": "address"
        },
        {
          "internalType": "uint256",
          "name": "value",
          "type": "uint256"
        }
      ],
      "name": "transfer",
      "outputs": [
        {
          "internalType": "bool",
          "name": "",
          "type": "bool"
        }
      ],
      "stateMutability": "nonpayable",
      "type": "function"
    },
    {
      "inputs": [
        {
          "internalType": "address",
          "name": "from",
          "type": "address"
        },
        {
          "internalType": "address",
          "name": "to",
          "type": "address"
        },
        {
          "internalType": "uint256",
          "name": "value",
          "type": "uint256"
        }
      ],
      "name": "transferFrom",
      "outputs": [
        {
          "internalType": "bool",
          "name": "",
          "type": "bool"
        }
      ],
      "stateMutability": "nonpayable",
      "type": "function"
    },
    {
      "inputs": [
        {
          "internalType": "address",
          "name": "newOwner",
          "type": "address"
        }
      ],
      "name": "transferOwnership",
      "outputs": [],
      "stateMutability": "nonpayable",
      "type": "function"
    }
  ],
  "bytecode": "6080604052346103b157610d846020813803918261001c816103b6565b9384928339810103126103b157516001600160a01b038116908190036103b15761004660406103b6565b90601582527f43697263756c61722052657761726420546f6b656e0000000000000000000000602083015261007b60406103b6565b60048152634349524360e01b602082015282519091906001600160401b0381116102ba57600354600181811c911680156103a7575b602082101461029a57601f8111610342575b506020601f82116001146102db57819293946000926102d0575b50508160011b916000199060031b1c1916176003555b81516001600160401b0381116102ba57600454600181811c911680156102b0575b602082101461029a57601f8111610235575b50602092601f82116001146101d057928192936000926101c5575b50508160011b916000199060031b1c1916176004555b80156101af57600580546001600160a01b03198116831790915560405191906001600160a01b03167f8be0079c531659141344cd1fd0a4f28419497f9722a3daafe3b4186f6b6457e0600080a36109a890816103dc8239f35b631e4fbdf760e01b600052600060045260246000fd5b015190503880610140565b601f198216936004600052806000209160005b86811061021d5750836001959610610204575b505050811b01600455610156565b015160001960f88460031b161c191690553880806101f6565b919260206001819286850151815501940192016101e3565b60046000527f8a35acfbc15ff81a39ae7d344fd709f28e8600b4aa8c65c6b64bfe7fe36bd19b601f830160051c81019160208410610290575b601f0160051c01905b8181106102845750610125565b60008155600101610277565b909150819061026e565b634e487b7160e01b600052602260045260246000fd5b90607f1690610113565b634e487b7160e01b600052604160045260246000fd5b0151905038806100dc565b601f198216906003600052806000209160005b81811061032a57509583600195969710610311575b505050811b016003556100f2565b015160001960f88460031b161c19169055388080610303565b9192602060018192868b0151815501940192016102ee565b60036000527fc2575a0e9e593c00f959f8c92f12db2869c3395a3b0502d05e2516446f71f85b601f830160051c8101916020841061039d575b601f0160051c01905b81811061039157506100c2565b60008155600101610384565b909150819061037b565b90607f16906100b0565b600080fd5b6040519190601f01601f191682016001600160401b038111838210176102ba5760405256fe608080604052600436101561001357600080fd5b60003560e01c90816306fdde031461073b57508063095ea7b3146106b557806318160ddd146106975780631c2ca3c91461065457806323b872dd14610567578063313ce5671461054b57806340c10f191461045957806342966c68146103c557806348403c031461039c57806370a0823114610362578063715018a6146103175780638da5cb5b146102ee57806395d89b41146101ce578063a9059cbb1461019d578063dd62ed3e1461014c5763f2fde38b146100cf57600080fd5b34610147576020366003190112610147576100e8610856565b6100f0610882565b6001600160a01b0316801561013157600580546001600160a01b0319811683179091556001600160a01b0316600080516020610933833981519152600080a3005b631e4fbdf760e01b600052600060045260246000fd5b600080fd5b3461014757604036600319011261014757610165610856565b61016d61086c565b6001600160a01b039182166000908152600160209081526040808320949093168252928352819020549051908152f35b34610147576040366003190112610147576101c36101b9610856565b60243590336108ab565b602060405160018152f35b346101475760003660031901126101475760405160006004548060011c906001811680156102e4575b6020831081146102d0578285529081156102b4575060011461025d575b50819003601f01601f19168101906001600160401b03821181831017610247576102438291826040528261080d565b0390f35b634e487b7160e01b600052604160045260246000fd5b600460009081529091507f8a35acfbc15ff81a39ae7d344fd709f28e8600b4aa8c65c6b64bfe7fe36bd19b5b82821061029e57506020915082010182610214565b6001816020925483858801015201910190610289565b90506020925060ff191682840152151560051b82010182610214565b634e487b7160e01b84526022600452602484fd5b91607f16916101f7565b34610147576000366003190112610147576005546040516001600160a01b039091168152602090f35b3461014757600036600319011261014757610330610882565b600580546001600160a01b031981169091556000906001600160a01b03166000805160206109338339815191528280a3005b34610147576020366003190112610147576001600160a01b03610383610856565b1660005260006020526020604060002054604051908152f35b34610147576000366003190112610147576006546040516001600160a01b039091168152602090f35b346101475760203660031901126101475760043533156104435760003381528060205260408120549180831061042a5780829333845283602052036040832055806002540360025560405190815260008051602061095383398151915260203392a380f35b60649263391434e360e21b835233600452602452604452fd5b634b637e8f60e11b600052600060045260246000fd5b3461014757604036600319011261014757610472610856565b60065460243591906001600160a01b03163303610506576001600160a01b031680156104f057600254918083018093116104da57602092600255600080516020610953833981519152600093849284845283825260408420818154019055604051908152a380f35b634e487b7160e01b600052601160045260246000fd5b63ec442f0560e01b600052600060045260246000fd5b60405162461bcd60e51b815260206004820152601e60248201527f4f6e6c792072656379636c696e672063656e7465722063616e206d696e7400006044820152606490fd5b3461014757600036600319011261014757602060405160128152f35b3461014757606036600319011261014757610580610856565b61058861086c565b6001600160a01b03821660008181526001602090815260408083203384529091529020549092604435929160001981106105c8575b506101c393506108ab565b83811061063757841561062157331561060b576101c3946000526001602052604060002060018060a01b03331660005260205283604060002091039055846105bd565b634a1406b160e11b600052600060045260246000fd5b63e602df0560e01b600052600060045260246000fd5b8390637dc7a0d960e11b6000523360045260245260445260646000fd5b346101475760203660031901126101475761066d610856565b610675610882565b600680546001600160a01b0319166001600160a01b0392909216919091179055005b34610147576000366003190112610147576020600254604051908152f35b34610147576040366003190112610147576106ce610856565b602435903315610621576001600160a01b031690811561060b57336000526001602052604060002082600052602052806040600020556040519081527f8c5be1e5ebec7d5bd14f71427d1e84f3dd0314c0f7b2291e5b200ac8c7c3b92560203392a3602060405160018152f35b346101475760003660031901126101475760006003548060011c90600181168015610803575b6020831081146102d0578285529081156102b457506001146107ac5750819003601f01601f19168101906001600160401b03821181831017610247576102438291826040528261080d565b600360009081529091507fc2575a0e9e593c00f959f8c92f12db2869c3395a3b0502d05e2516446f71f85b5b8282106107ed57506020915082010182610214565b60018160209254838588010152019101906107d8565b91607f1691610761565b91909160208152825180602083015260005b818110610840575060409293506000838284010152601f8019910116010190565b806020809287010151604082860101520161081f565b600435906001600160a01b038216820361014757565b602435906001600160a01b038216820361014757565b6005546001600160a01b0316330361089657565b63118cdaa760e01b6000523360045260246000fd5b6001600160a01b0316908115610443576001600160a01b03169182156104f0576000828152806020526040812054828110610918579160408282600080516020610953833981519152958760209652828652038282205586815280845220818154019055604051908152a3565b916064928463391434e360e21b8452600452602452604452fdfe8be0079c531659141344cd1fd0a4f28419497f9722a3daafe3b4186f6b6457e0ddf252ad1be2c89b69c2b068fc378daa952ba7f163c4a11628f55a4df523b3efa2646970667358221220c60f8bf06822fd23c649b636ef7817b307a46ba7c9c02ee097ebeec34207595b64736f6c634300081c0033",
  "linkReferences": {},
  "deployedLinkReferences": {}
}