{
  "_format": "hh-sol-artifact-1",
  "contractName": "RecyclingCenter",
  "sourceName": "contracts/RecyclingCenter.sol",
  "abi": [
    {
      "inputs": [
        {
          "internalType": "address",
          "name": "initialOwner",
          "type": "address"
        },
        {
          "internalType": "address",
          "name": "_circularNFT",
          "type": "address"
        },
        {
          "internalType": "address",
          "name": "_rewardToken",
          "type": "address"
        }
      ],
      "stateMutability": "nonpayable",
      "type": "constructor"
    },
    {
      "inputs": [
        {
          "internalType": "address",
          "name": "owner",
          "type": "address"
        }
      ],
      "name": "OwnableInvalidOwner",
      "type": "error"
    },
    {
      "inputs": [
        {
          "internalType": "address",
          "name": "account",
          "type": "address"
        }
      ],
      "name": "OwnableUnauthorizedAccount",
      "type": "error"
    },
    {
      "anonymous": false,
      "inputs": [
        {
          "indexed": true,
          "internalType": "address",
          "name": "previousOwner",
          "type": "address"
        },
        {
          "indexed": true,
          "internalType": "address",
          "name": "newOwner",
          "type": "address"
        }
      ],
      "name": "OwnershipTransferred",
      "type": "event"
    },
    {
      "anonymous": false,
      "inputs": [
        {
          "indexed": true,
          "internalType": "address",
          "name": "user",
          "type": "address"
        },
        {
          "indexed": true,
          "internalType": "uint256",
          "name": "tokenId",
          "type": "uint256"
        }
      ],
      "name": "ProductRecycled",
      "type": "event"
    },
    {
      "inputs": [
        {
          "internalType": "address",
          "name": "center",
          "type": "address"
        }
      ],
      "name": "authorizeCenter",
      "outputs": [],
      "stateMutability": "nonpayable",
      "type": "function"
    },
    {
      "inputs": [
        {
          "internalType": "address",
          "name": "",
          "type": "address"
        }
      ],
      "name": "authorizedCenters",
      "outputs": [
        {
          "internalType": "bool",
          "name": "",
          "type": "bool"
        }
      ],
      "stateMutability": "view",
      "type": "function"
    },
    {
      "inputs": [],
      "name": "circularNFT",
      "outputs": [
        {
          "internalType": "contract CircularNFT",
          "name": "",
          "type": "address"
        }
      ],
      "stateMutability": "view",
      "type": "function"
    },
    {
      "inputs": [
        {
          "internalType": "address",
          "name": "center",
          "type": "address"
        }
      ],
      "name": "deauthorizeCenter",
      "outputs": [],
      "stateMutability": "nonpayable",
      "type": "function"
    },
    {
      "inputs": [],
      "name": "owner",
      "outputs": [
        {
          "internalType": "address",
          "name": "",
          "type": "address"
        }
      ],
      "stateMutability": "view",
      "type": "function"
    },
    {
      "inputs": [
        {
          "internalType": "address",
          "name": "user",
          "type": "address"
        },
        {
          "internalType": "uint256",
          "name": "tokenId",
          "type": "uint256"
        }
      ],
      "name": "recycleProduct",
      "outputs": [],
      "stateMutability": "nonpayable",
      "type": "function"
    },
    {
      "inputs": [],
      "name": "renounceOwnership",
      "outputs": [],
      "stateMutability": "nonpayable",
      "type": "function"
    },
    {
      "inputs": [],
      "name": "rewardAmount",
      "outputs": [
        {
          "internalType": "uint256",
          "name": "",
          "type": "uint256"
        }
      ],
      "stateMutability": "view",
      "type": "function"
    },
    {
      "inputs": [],
      "name": "rewardToken",
      "outputs": [
        {
          "internalType": "contract RewardToken",
          "name": "",
          "type": "address"
        }
      ],
      "stateMutability": "view",
      "type": "function"
    },
    {
      "inputs": [
        {
          "internalType": "address",
          "name": "newOwner",
          "type": "address"
        }
      ],
      "name": "transferOwnership",
      "outputs": [],
      "stateMutability": "nonpayable",
      "type": "function"
    }
  ],
  "bytecode": "60803461011757601f61071038819003918201601f19168301916001600160401b0383118484101761011c578084926060946040528339810103126101175761004781610132565b61005f604061005860208501610132565b9301610132565b6001600160a01b0390911691821561010157600080546001600160a01b031981168517825560405194916001600160a01b03909116907f8be0079c531659141344cd1fd0a4f28419497f9722a3daafe3b4186f6b6457e09080a3600180546001600160a01b039283166001600160a01b0319918216179091556002805493909216921691909117905568056bc75e2d631000006004556105c990816101478239f35b631e4fbdf760e01b600052600060045260246000fd5b600080fd5b634e487b7160e01b600052604160045260246000fd5b51906001600160a01b03821682036101175756fe6080604052600436101561001257600080fd5b6000803560e01c8063715018a6146104ae578063774935321461046f5780638da5cb5b14610448578063a0de9b051461041f578063af3e0d8a146103de578063d308611e1461039a578063f2fde38b14610326578063f7b2a7be14610308578063f7c618c1146102df5763f81b9bd41461008b57600080fd5b346102dc5760403660031901126102dc576100a46104f6565b60243590338352600360205260ff6040842054161561028c576001546040516331a9108f60e11b815260048101849052916001600160a01b0390911690602083602481855afa928315610281578593610239575b506001600160a01b0390811692168290036101f7578084913b156101f3578190602460405180948193630852cd8d60e31b83528860048401525af180156101e8576101d4575b5060025460045484916001600160a01b031690813b156101c55782916044839260405194859384926340c10f1960e01b845289600485015260248401525af180156101c9576101b0575b50807f081de6e334b821dbb8050dfa94d53034e8633c8452b47ce4fd90b3d69491141d91a380f35b816101ba91610511565b6101c5578238610188565b8280fd5b6040513d84823e3d90fd5b836101e191949294610511565b913861013e565b6040513d86823e3d90fd5b5080fd5b60405162461bcd60e51b815260206004820152601a602482015279155cd95c88191bd95cc81b9bdd081bdddb881d1a1a5cc813919560321b6044820152606490fd5b9092506020813d602011610279575b8161025560209383610511565b8101031261027557516001600160a01b03811681036102755791386100f8565b8480fd5b3d9150610248565b6040513d87823e3d90fd5b60405162461bcd60e51b815260206004820152602260248201527f4e6f7420616e20617574686f72697a65642072656379636c696e672063656e7460448201526132b960f11b6064820152608490fd5b80fd5b50346102dc57806003193601126102dc576002546040516001600160a01b039091168152602090f35b50346102dc57806003193601126102dc576020600454604051908152f35b50346102dc5760203660031901126102dc576103406104f6565b61034861054a565b6001600160a01b031680156103865781546001600160a01b03198116821783556001600160a01b03166000805160206105748339815191528380a380f35b631e4fbdf760e01b82526004829052602482fd5b50346102dc5760203660031901126102dc576103b46104f6565b6103bc61054a565b6001600160a01b03168152600360205260408120805460ff1916600117905580f35b50346102dc5760203660031901126102dc576103f86104f6565b61040061054a565b6001600160a01b03168152600360205260408120805460ff1916905580f35b50346102dc57806003193601126102dc576001546040516001600160a01b039091168152602090f35b50346102dc57806003193601126102dc57546040516001600160a01b039091168152602090f35b50346102dc5760203660031901126102dc5760209060ff906040906001600160a01b0361049a6104f6565b168152600384522054166040519015158152f35b50346102dc57806003193601126102dc576104c761054a565b80546001600160a01b03198116825581906001600160a01b03166000805160206105748339815191528280a380f35b600435906001600160a01b038216820361050c57565b600080fd5b601f909101601f19168101906001600160401b0382119082101761053457604052565b634e487b7160e01b600052604160045260246000fd5b6000546001600160a01b0316330361055e57565b63118cdaa760e01b6000523360045260246000fdfe8be0079c531659141344cd1fd0a4f28419497f9722a3daafe3b4186f6b6457e0a264697066735822122046b0d6dc8ea8af2ee35edddd24dc7f8df58ab52c1872f49890167469b0eaedf664736f6c634300081c0033",
  "linkReferences": {},
  "deployedLinkReferences": {}
}