{
  "_format": "hh-sol-artifact-1",
  "contractName": "RecyclingCenter",
  "sourceName": "contracts/RecyclingCenter.sol",
  "abi": [
    {
      "inputs": [
        {
          "internalType": "address",
          "name": "initialOwner",
          "type": "address"
        },
        {
          "internalType": "address",
          "name": "_circularNFT",
          "type": "address"
        },
        {
          "internalType": "address",
          "name": "_rewardToken",
          "type": "address"
        }
      ],
      "stateMutability": "nonpayable",
      "type": "constructor"
    },
    {
      "inputs": [
        {
          "internalType": "address",
          "name": "owner",
          "type": "address"
        }
      ],
      "name": "OwnableInvalidOwner",
      "type": "error"
    },
    {
      "inputs": [
        {
          "internalType": "address",
          "name": "account",
          "type": "address"
        }
      ],
      "name": "OwnableUnauthorizedAccount",
      "type": "error"
    },
    {
      "anonymous": false,
      "inputs": [
        {
          "indexed": true,
          "internalType": "address",
          "name": "center",
          "type": "address"
        }
      ],
      "name": "CenterAuthorized",
      "type": "event"
    },
    {
      "anonymous": false,
      "inputs": [
        {
          "indexed": true,
          "internalType": "address",
          "name": "center",
          "type": "address"
        }
      ],
      "name": "CenterDeauthorized",
      "type": "event"
    },
    {
      "anonymous": false,
      "inputs": [
        {
          "indexed": true,
          "internalType": "address",
          "name": "previousOwner",
          "type": "address"
        },
        {
          "indexed": true,
          "internalType": "address",
          "name": "newOwner",
          "type": "address"
        }
      ],
      "name": "OwnershipTransferred",
      "type": "event"
    },
    {
      "anonymous": false,
      "inputs": [
        {
          "indexed": true,
          "internalType": "address",
          "name": "user",
          "type": "address"
        },
        {
          "indexed": true,
          "internalType": "uint256",
          "name": "tokenId",
          "type": "uint256"
        },
        {
          "indexed": false,
          "internalType": "uint256",
          "name": "rewardAmount",
          "type": "uint256"
        }
      ],
      "name": "ProductRecycled",
      "type": "event"
    },
    {
      "anonymous": false,
      "inputs": [
        {
          "indexed": false,
          "internalType": "uint256",
          "name": "oldAmount",
          "type": "uint256"
        },
        {
          "indexed": false,
          "internalType": "uint256",
          "name": "newAmount",
          "type": "uint256"
        }
      ],
      "name": "RewardAmountUpdated",
      "type": "event"
    },
    {
      "inputs": [
        {
          "internalType": "address",
          "name": "center",
          "type": "address"
        }
      ],
      "name": "authorizeCenter",
      "outputs": [],
      "stateMutability": "nonpayable",
      "type": "function"
    },
    {
      "inputs": [
        {
          "internalType": "address",
          "name": "",
          "type": "address"
        }
      ],
      "name": "authorizedCenters",
      "outputs": [
        {
          "internalType": "bool",
          "name": "",
          "type": "bool"
        }
      ],
      "stateMutability": "view",
      "type": "function"
    },
    {
      "inputs": [],
      "name": "circularNFT",
      "outputs": [
        {
          "internalType": "contract CircularNFT",
          "name": "",
          "type": "address"
        }
      ],
      "stateMutability": "view",
      "type": "function"
    },
    {
      "inputs": [
        {
          "internalType": "address",
          "name": "center",
          "type": "address"
        }
      ],
      "name": "deauthorizeCenter",
      "outputs": [],
      "stateMutability": "nonpayable",
      "type": "function"
    },
    {
      "inputs": [],
      "name": "owner",
      "outputs": [
        {
          "internalType": "address",
          "name": "",
          "type": "address"
        }
      ],
      "stateMutability": "view",
      "type": "function"
    },
    {
      "inputs": [
        {
          "internalType": "address",
          "name": "user",
          "type": "address"
        },
        {
          "internalType": "uint256",
          "name": "tokenId",
          "type": "uint256"
        }
      ],
      "name": "recycleProduct",
      "outputs": [],
      "stateMutability": "nonpayable",
      "type": "function"
    },
    {
      "inputs": [],
      "name": "renounceOwnership",
      "outputs": [],
      "stateMutability": "nonpayable",
      "type": "function"
    },
    {
      "inputs": [],
      "name": "rewardAmount",
      "outputs": [
        {
          "internalType": "uint256",
          "name": "",
          "type": "uint256"
        }
      ],
      "stateMutability": "view",
      "type": "function"
    },
    {
      "inputs": [],
      "name": "rewardToken",
      "outputs": [
        {
          "internalType": "contract RewardToken",
          "name": "",
          "type": "address"
        }
      ],
      "stateMutability": "view",
      "type": "function"
    },
    {
      "inputs": [
        {
          "internalType": "address",
          "name": "newOwner",
          "type": "address"
        }
      ],
      "name": "transferOwnership",
      "outputs": [],
      "stateMutability": "nonpayable",
      "type": "function"
    },
    {
      "inputs": [
        {
          "internalType": "uint256",
          "name": "newAmount",
          "type": "uint256"
        }
      ],
      "name": "updateRewardAmount",
      "outputs": [],
      "stateMutability": "nonpayable",
      "type": "function"
    }
  ],
  "bytecode": "0x60806040523480156200001157600080fd5b506040516200115e3803806200115e833981810160405281019062000037919062000288565b82600073ffffffffffffffffffffffffffffffffffffffff168173ffffffffffffffffffffffffffffffffffffffff1603620000ad5760006040517f1e4fbdf7000000000000000000000000000000000000000000000000000000008152600401620000a49190620002f5565b60405180910390fd5b620000be816200015a60201b60201c565b5081600160006101000a81548173ffffffffffffffffffffffffffffffffffffffff021916908373ffffffffffffffffffffffffffffffffffffffff16021790555080600260006101000a81548173ffffffffffffffffffffffffffffffffffffffff021916908373ffffffffffffffffffffffffffffffffffffffff16021790555068056bc75e2d6310000060048190555050505062000312565b60008060009054906101000a900473ffffffffffffffffffffffffffffffffffffffff169050816000806101000a81548173ffffffffffffffffffffffffffffffffffffffff021916908373ffffffffffffffffffffffffffffffffffffffff1602179055508173ffffffffffffffffffffffffffffffffffffffff168173ffffffffffffffffffffffffffffffffffffffff167f8be0079c531659141344cd1fd0a4f28419497f9722a3daafe3b4186f6b6457e060405160405180910390a35050565b600080fd5b600073ffffffffffffffffffffffffffffffffffffffff82169050919050565b6000620002508262000223565b9050919050565b620002628162000243565b81146200026e57600080fd5b50565b600081519050620002828162000257565b92915050565b600080600060608486031215620002a457620002a36200021e565b5b6000620002b48682870162000271565b9350506020620002c78682870162000271565b9250506040620002da8682870162000271565b9150509250925092565b620002ef8162000243565b82525050565b60006020820190506200030c6000830184620002e4565b92915050565b610e3c80620003226000396000f3fe608060405234801561001057600080fd5b50600436106100a95760003560e01c8063af3e0d8a11610071578063af3e0d8a14610140578063d308611e1461015c578063f2fde38b14610178578063f7b2a7be14610194578063f7c618c1146101b2578063f81b9bd4146101d0576100a9565b806315c2ba14146100ae578063715018a6146100ca57806377493532146100d45780638da5cb5b14610104578063a0de9b0514610122575b600080fd5b6100c860048036038101906100c39190610999565b6101ec565b005b6100d2610282565b005b6100ee60048036038101906100e99190610a24565b610296565b6040516100fb9190610a6c565b60405180910390f35b61010c6102b6565b6040516101199190610a96565b60405180910390f35b61012a6102df565b6040516101379190610b10565b60405180910390f35b61015a60048036038101906101559190610a24565b610305565b005b61017660048036038101906101719190610a24565b6103ab565b005b610192600480360381019061018d9190610a24565b610451565b005b61019c6104d7565b6040516101a99190610b3a565b60405180910390f35b6101ba6104dd565b6040516101c79190610b76565b60405180910390f35b6101ea60048036038101906101e59190610b91565b610503565b005b6101f461080b565b60008111610237576040517f08c379a000000000000000000000000000000000000000000000000000000000815260040161022e90610c54565b60405180910390fd5b60006004549050816004819055507ff0d37c3ae852021ac329281f604b658691cbfa6b9e9c22909f06b64a8ce87c948183604051610276929190610c74565b60405180910390a15050565b61028a61080b565b6102946000610892565b565b60036020528060005260406000206000915054906101000a900460ff1681565b60008060009054906101000a900473ffffffffffffffffffffffffffffffffffffffff16905090565b600160009054906101000a900473ffffffffffffffffffffffffffffffffffffffff1681565b61030d61080b565b6000600360008373ffffffffffffffffffffffffffffffffffffffff1673ffffffffffffffffffffffffffffffffffffffff16815260200190815260200160002060006101000a81548160ff0219169083151502179055508073ffffffffffffffffffffffffffffffffffffffff167fe83fcfff4c4c2e294d88b6f5c289dc41d8457e391f7a3941826a4775834e780260405160405180910390a250565b6103b361080b565b6001600360008373ffffffffffffffffffffffffffffffffffffffff1673ffffffffffffffffffffffffffffffffffffffff16815260200190815260200160002060006101000a81548160ff0219169083151502179055508073ffffffffffffffffffffffffffffffffffffffff167f2f410d1e1efe2be9ac8a5d46afc5f9fdd8c50751bf420ddaad174a6bc6b8cc4660405160405180910390a250565b61045961080b565b600073ffffffffffffffffffffffffffffffffffffffff168173ffffffffffffffffffffffffffffffffffffffff16036104cb5760006040517f1e4fbdf70000000000000000000000000000000000000000000000000000000081526004016104c29190610a96565b60405180910390fd5b6104d481610892565b50565b60045481565b600260009054906101000a900473ffffffffffffffffffffffffffffffffffffffff1681565b600360003373ffffffffffffffffffffffffffffffffffffffff1673ffffffffffffffffffffffffffffffffffffffff16815260200190815260200160002060009054906101000a900460ff1661058f576040517f08c379a000000000000000000000000000000000000000000000000000000000815260040161058690610d0f565b60405180910390fd5b8173ffffffffffffffffffffffffffffffffffffffff16600160009054906101000a900473ffffffffffffffffffffffffffffffffffffffff1673ffffffffffffffffffffffffffffffffffffffff16636352211e836040518263ffffffff1660e01b81526004016106019190610b3a565b602060405180830381865afa15801561061e573d6000803e3d6000fd5b505050506040513d601f19601f820116820180604052508101906106429190610d44565b73ffffffffffffffffffffffffffffffffffffffff1614610698576040517f08c379a000000000000000000000000000000000000000000000000000000000815260040161068f90610dbd565b60405180910390fd5b600160009054906101000a900473ffffffffffffffffffffffffffffffffffffffff1673ffffffffffffffffffffffffffffffffffffffff166342966c68826040518263ffffffff1660e01b81526004016106f39190610b3a565b600060405180830381600087803b15801561070d57600080fd5b505af1158015610721573d6000803e3d6000fd5b50505050600260009054906101000a900473ffffffffffffffffffffffffffffffffffffffff1673ffffffffffffffffffffffffffffffffffffffff166340c10f19836004546040518363ffffffff1660e01b8152600401610784929190610ddd565b600060405180830381600087803b15801561079e57600080fd5b505af11580156107b2573d6000803e3d6000fd5b50505050808273ffffffffffffffffffffffffffffffffffffffff167f080ac4523930bdcc2e85ca0a99da6547ba0d4c3badb2a3693f781d80aa4863dc6004546040516107ff9190610b3a565b60405180910390a35050565b610813610956565b73ffffffffffffffffffffffffffffffffffffffff166108316102b6565b73ffffffffffffffffffffffffffffffffffffffff161461089057610854610956565b6040517f118cdaa70000000000000000000000000000000000000000000000000000000081526004016108879190610a96565b60405180910390fd5b565b60008060009054906101000a900473ffffffffffffffffffffffffffffffffffffffff169050816000806101000a81548173ffffffffffffffffffffffffffffffffffffffff021916908373ffffffffffffffffffffffffffffffffffffffff1602179055508173ffffffffffffffffffffffffffffffffffffffff168173ffffffffffffffffffffffffffffffffffffffff167f8be0079c531659141344cd1fd0a4f28419497f9722a3daafe3b4186f6b6457e060405160405180910390a35050565b600033905090565b600080fd5b6000819050919050565b61097681610963565b811461098157600080fd5b50565b6000813590506109938161096d565b92915050565b6000602082840312156109af576109ae61095e565b5b60006109bd84828501610984565b91505092915050565b600073ffffffffffffffffffffffffffffffffffffffff82169050919050565b60006109f1826109c6565b9050919050565b610a01816109e6565b8114610a0c57600080fd5b50565b600081359050610a1e816109f8565b92915050565b600060208284031215610a3a57610a3961095e565b5b6000610a4884828501610a0f565b91505092915050565b60008115159050919050565b610a6681610a51565b82525050565b6000602082019050610a816000830184610a5d565b92915050565b610a90816109e6565b82525050565b6000602082019050610aab6000830184610a87565b92915050565b6000819050919050565b6000610ad6610ad1610acc846109c6565b610ab1565b6109c6565b9050919050565b6000610ae882610abb565b9050919050565b6000610afa82610add565b9050919050565b610b0a81610aef565b82525050565b6000602082019050610b256000830184610b01565b92915050565b610b3481610963565b82525050565b6000602082019050610b4f6000830184610b2b565b92915050565b6000610b6082610add565b9050919050565b610b7081610b55565b82525050565b6000602082019050610b8b6000830184610b67565b92915050565b60008060408385031215610ba857610ba761095e565b5b6000610bb685828601610a0f565b9250506020610bc785828601610984565b9150509250929050565b600082825260208201905092915050565b7f52657761726420616d6f756e74206d757374206265206772656174657220746860008201527f616e203000000000000000000000000000000000000000000000000000000000602082015250565b6000610c3e602483610bd1565b9150610c4982610be2565b604082019050919050565b60006020820190508181036000830152610c6d81610c31565b9050919050565b6000604082019050610c896000830185610b2b565b610c966020830184610b2b565b9392505050565b7f4e6f7420616e20617574686f72697a65642072656379636c696e672063656e7460008201527f6572000000000000000000000000000000000000000000000000000000000000602082015250565b6000610cf9602283610bd1565b9150610d0482610c9d565b604082019050919050565b60006020820190508181036000830152610d2881610cec565b9050919050565b600081519050610d3e816109f8565b92915050565b600060208284031215610d5a57610d5961095e565b5b6000610d6884828501610d2f565b91505092915050565b7f5573657220646f6573206e6f74206f776e2074686973204e4654000000000000600082015250565b6000610da7601a83610bd1565b9150610db282610d71565b602082019050919050565b60006020820190508181036000830152610dd681610d9a565b9050919050565b6000604082019050610df26000830185610a87565b610dff6020830184610b2b565b939250505056fea2646970667358221220a90a3ecf803286cf985964c191e958d0879efcc6dde82ef9d670cf0b80d16d0e64736f6c63430008160033",
  "linkReferences": {},
  "deployedLinkReferences": {}
}