{
  "_format": "hh-sol-artifact-1",
  "contractName": "CircularNFT",
  "sourceName": "contracts/CircularNFT.sol",
  "abi": [
    {
      "inputs": [
        {
          "internalType": "address",
          "name": "initialOwner",
          "type": "address"
        }
      ],
      "stateMutability": "nonpayable",
      "type": "constructor"
    },
    {
      "inputs": [
        {
          "internalType": "address",
          "name": "sender",
          "type": "address"
        },
        {
          "internalType": "uint256",
          "name": "tokenId",
          "type": "uint256"
        },
        {
          "internalType": "address",
          "name": "owner",
          "type": "address"
        }
      ],
      "name": "ERC721IncorrectOwner",
      "type": "error"
    },
    {
      "inputs": [
        {
          "internalType": "address",
          "name": "operator",
          "type": "address"
        },
        {
          "internalType": "uint256",
          "name": "tokenId",
          "type": "uint256"
        }
      ],
      "name": "ERC721InsufficientApproval",
      "type": "error"
    },
    {
      "inputs": [
        {
          "internalType": "address",
          "name": "approver",
          "type": "address"
        }
      ],
      "name": "ERC721InvalidApprover",
      "type": "error"
    },
    {
      "inputs": [
        {
          "internalType": "address",
          "name": "operator",
          "type": "address"
        }
      ],
      "name": "ERC721InvalidOperator",
      "type": "error"
    },
    {
      "inputs": [
        {
          "internalType": "address",
          "name": "owner",
          "type": "address"
        }
      ],
      "name": "ERC721InvalidOwner",
      "type": "error"
    },
    {
      "inputs": [
        {
          "internalType": "address",
          "name": "receiver",
          "type": "address"
        }
      ],
      "name": "ERC721InvalidReceiver",
      "type": "error"
    },
    {
      "inputs": [
        {
          "internalType": "address",
          "name": "sender",
          "type": "address"
        }
      ],
      "name": "ERC721InvalidSender",
      "type": "error"
    },
    {
      "inputs": [
        {
          "internalType": "uint256",
          "name": "tokenId",
          "type": "uint256"
        }
      ],
      "name": "ERC721NonexistentToken",
      "type": "error"
    },
    {
      "inputs": [
        {
          "internalType": "address",
          "name": "owner",
          "type": "address"
        }
      ],
      "name": "OwnableInvalidOwner",
      "type": "error"
    },
    {
      "inputs": [
        {
          "internalType": "address",
          "name": "account",
          "type": "address"
        }
      ],
      "name": "OwnableUnauthorizedAccount",
      "type": "error"
    },
    {
      "anonymous": false,
      "inputs": [
        {
          "indexed": true,
          "internalType": "address",
          "name": "owner",
          "type": "address"
        },
        {
          "indexed": true,
          "internalType": "address",
          "name": "approved",
          "type": "address"
        },
        {
          "indexed": true,
          "internalType": "uint256",
          "name": "tokenId",
          "type": "uint256"
        }
      ],
      "name": "Approval",
      "type": "event"
    },
    {
      "anonymous": false,
      "inputs": [
        {
          "indexed": true,
          "internalType": "address",
          "name": "owner",
          "type": "address"
        },
        {
          "indexed": true,
          "internalType": "address",
          "name": "operator",
          "type": "address"
        },
        {
          "indexed": false,
          "internalType": "bool",
          "name": "approved",
          "type": "bool"
        }
      ],
      "name": "ApprovalForAll",
      "type": "event"
    },
    {
      "anonymous": false,
      "inputs": [
        {
          "indexed": true,
          "internalType": "uint256",
          "name": "tokenId",
          "type": "uint256"
        }
      ],
      "name": "NFTBurned",
      "type": "event"
    },
    {
      "anonymous": false,
      "inputs": [
        {
          "indexed": true,
          "internalType": "address",
          "name": "to",
          "type": "address"
        },
        {
          "indexed": true,
          "internalType": "uint256",
          "name": "tokenId",
          "type": "uint256"
        }
      ],
      "name": "NFTMinted",
      "type": "event"
    },
    {
      "anonymous": false,
      "inputs": [
        {
          "indexed": true,
          "internalType": "address",
          "name": "previousOwner",
          "type": "address"
        },
        {
          "indexed": true,
          "internalType": "address",
          "name": "newOwner",
          "type": "address"
        }
      ],
      "name": "OwnershipTransferred",
      "type": "event"
    },
    {
      "anonymous": false,
      "inputs": [
        {
          "indexed": true,
          "internalType": "address",
          "name": "from",
          "type": "address"
        },
        {
          "indexed": true,
          "internalType": "address",
          "name": "to",
          "type": "address"
        },
        {
          "indexed": true,
          "internalType": "uint256",
          "name": "tokenId",
          "type": "uint256"
        }
      ],
      "name": "Transfer",
      "type": "event"
    },
    {
      "inputs": [
        {
          "internalType": "address",
          "name": "to",
          "type": "address"
        },
        {
          "internalType": "uint256",
          "name": "tokenId",
          "type": "uint256"
        }
      ],
      "name": "approve",
      "outputs": [],
      "stateMutability": "nonpayable",
      "type": "function"
    },
    {
      "inputs": [
        {
          "internalType": "address",
          "name": "owner",
          "type": "address"
        }
      ],
      "name": "balanceOf",
      "outputs": [
        {
          "internalType": "uint256",
          "name": "",
          "type": "uint256"
        }
      ],
      "stateMutability": "view",
      "type": "function"
    },
    {
      "inputs": [
        {
          "internalType": "uint256",
          "name": "tokenId",
          "type": "uint256"
        }
      ],
      "name": "burn",
      "outputs": [],
      "stateMutability": "nonpayable",
      "type": "function"
    },
    {
      "inputs": [
        {
          "internalType": "uint256",
          "name": "tokenId",
          "type": "uint256"
        }
      ],
      "name": "getApproved",
      "outputs": [
        {
          "internalType": "address",
          "name": "",
          "type": "address"
        }
      ],
      "stateMutability": "view",
      "type": "function"
    },
    {
      "inputs": [
        {
          "internalType": "address",
          "name": "owner",
          "type": "address"
        },
        {
          "internalType": "address",
          "name": "operator",
          "type": "address"
        }
      ],
      "name": "isApprovedForAll",
      "outputs": [
        {
          "internalType": "bool",
          "name": "",
          "type": "bool"
        }
      ],
      "stateMutability": "view",
      "type": "function"
    },
    {
      "inputs": [
        {
          "internalType": "address",
          "name": "to",
          "type": "address"
        },
        {
          "internalType": "string",
          "name": "_tokenURI",
          "type": "string"
        }
      ],
      "name": "mintNFT",
      "outputs": [
        {
          "internalType": "uint256",
          "name": "",
          "type": "uint256"
        }
      ],
      "stateMutability": "nonpayable",
      "type": "function"
    },
    {
      "inputs": [],
      "name": "name",
      "outputs": [
        {
          "internalType": "string",
          "name": "",
          "type": "string"
        }
      ],
      "stateMutability": "view",
      "type": "function"
    },
    {
      "inputs": [],
      "name": "owner",
      "outputs": [
        {
          "internalType": "address",
          "name": "",
          "type": "address"
        }
      ],
      "stateMutability": "view",
      "type": "function"
    },
    {
      "inputs": [
        {
          "internalType": "uint256",
          "name": "tokenId",
          "type": "uint256"
        }
      ],
      "name": "ownerOf",
      "outputs": [
        {
          "internalType": "address",
          "name": "",
          "type": "address"
        }
      ],
      "stateMutability": "view",
      "type": "function"
    },
    {
      "inputs": [],
      "name": "recyclingCenter",
      "outputs": [
        {
          "internalType": "address",
          "name": "",
          "type": "address"
        }
      ],
      "stateMutability": "view",
      "type": "function"
    },
    {
      "inputs": [],
      "name": "renounceOwnership",
      "outputs": [],
      "stateMutability": "nonpayable",
      "type": "function"
    },
    {
      "inputs": [
        {
          "internalType": "address",
          "name": "from",
          "type": "address"
        },
        {
          "internalType": "address",
          "name": "to",
          "type": "address"
        },
        {
          "internalType": "uint256",
          "name": "tokenId",
          "type": "uint256"
        }
      ],
      "name": "safeTransferFrom",
      "outputs": [],
      "stateMutability": "nonpayable",
      "type": "function"
    },
    {
      "inputs": [
        {
          "internalType": "address",
          "name": "from",
          "type": "address"
        },
        {
          "internalType": "address",
          "name": "to",
          "type": "address"
        },
        {
          "internalType": "uint256",
          "name": "tokenId",
          "type": "uint256"
        },
        {
          "internalType": "bytes",
          "name": "data",
          "type": "bytes"
        }
      ],
      "name": "safeTransferFrom",
      "outputs": [],
      "stateMutability": "nonpayable",
      "type": "function"
    },
    {
      "inputs": [
        {
          "internalType": "address",
          "name": "operator",
          "type": "address"
        },
        {
          "internalType": "bool",
          "name": "approved",
          "type": "bool"
        }
      ],
      "name": "setApprovalForAll",
      "outputs": [],
      "stateMutability": "nonpayable",
      "type": "function"
    },
    {
      "inputs": [
        {
          "internalType": "address",
          "name": "_recyclingCenter",
          "type": "address"
        }
      ],
      "name": "setRecyclingCenter",
      "outputs": [],
      "stateMutability": "nonpayable",
      "type": "function"
    },
    {
      "inputs": [
        {
          "internalType": "bytes4",
          "name": "interfaceId",
          "type": "bytes4"
        }
      ],
      "name": "supportsInterface",
      "outputs": [
        {
          "internalType": "bool",
          "name": "",
          "type": "bool"
        }
      ],
      "stateMutability": "view",
      "type": "function"
    },
    {
      "inputs": [],
      "name": "symbol",
      "outputs": [
        {
          "internalType": "string",
          "name": "",
          "type": "string"
        }
      ],
      "stateMutability": "view",
      "type": "function"
    },
    {
      "inputs": [
        {
          "internalType": "uint256",
          "name": "tokenId",
          "type": "uint256"
        }
      ],
      "name": "tokenURI",
      "outputs": [
        {
          "internalType": "string",
          "name": "",
          "type": "string"
        }
      ],
      "stateMutability": "view",
      "type": "function"
    },
    {
      "inputs": [
        {
          "internalType": "address",
          "name": "from",
          "type": "address"
        },
        {
          "internalType": "address",
          "name": "to",
          "type": "address"
        },
        {
          "internalType": "uint256",
          "name": "tokenId",
          "type": "uint256"
        }
      ],
      "name": "transferFrom",
      "outputs": [],
      "stateMutability": "nonpayable",
      "type": "function"
    },
    {
      "inputs": [
        {
          "internalType": "address",
          "name": "newOwner",
          "type": "address"
        }
      ],
      "name": "transferOwnership",
      "outputs": [],
      "stateMutability": "nonpayable",
      "type": "function"
    }
  ],
  "bytecode": "60806040523461039e576116796020813803918261001c816103a3565b93849283398101031261039e57516001600160a01b0381169081900361039e5761004660406103a3565b90600b82526a10da5c98dd5b185c93919560aa1b602083015261006960406103a3565b600581526410d493919560da1b602082015282519091906001600160401b0381116102a957600054600181811c91168015610394575b602082101461028957601f8111610330575b506020601f82116001146102ca57819293946000926102bf575b50508160011b916000199060031b1c1916176000555b81516001600160401b0381116102a957600154600181811c9116801561029f575b602082101461028957601f8111610224575b50602092601f82116001146101bf57928192936000926101b4575b50508160011b916000199060031b1c1916176001555b801561019e57600680546001600160a01b03198116831790915560405191906001600160a01b03167f8be0079c531659141344cd1fd0a4f28419497f9722a3daafe3b4186f6b6457e0600080a36112b090816103c98239f35b631e4fbdf760e01b600052600060045260246000fd5b01519050388061012f565b601f198216936001600052806000209160005b86811061020c57508360019596106101f3575b505050811b01600155610145565b015160001960f88460031b161c191690553880806101e5565b919260206001819286850151815501940192016101d2565b60016000527fb10e2d527612073b26eecdfd717e6a320cf44b4afac2b0732d9fcbe2b7fa0cf6601f830160051c8101916020841061027f575b601f0160051c01905b8181106102735750610114565b60008155600101610266565b909150819061025d565b634e487b7160e01b600052602260045260246000fd5b90607f1690610102565b634e487b7160e01b600052604160045260246000fd5b0151905038806100cb565b601f1982169060008052806000209160005b818110610318575095836001959697106102ff575b505050811b016000556100e1565b015160001960f88460031b161c191690553880806102f1565b9192602060018192868b0151815501940192016102dc565b600080527f290decd9548b62a8d60345a988386fc84ba6bc95484008f6362f93160ef3e563601f830160051c8101916020841061038a575b601f0160051c01905b81811061037e57506100b1565b60008155600101610371565b9091508190610368565b90607f169061009f565b600080fd5b6040519190601f01601f191682016001600160401b038111838210176102a95760405256fe608080604052600436101561001357600080fd5b60003560e01c90816301ffc9a714610d505750806306fdde0314610cab578063081812fc14610c6d578063095ea7b314610b7e5780631c2ca3c914610b3b57806323b872dd14610b2457806342842e0e14610af457806342966c681461097157806348403c03146109485780636352211e1461091857806370a08231146108c2578063715018a6146108775780638da5cb5b1461084e57806395d89b4114610781578063a22cb465146106e0578063b88d4fde14610672578063c87b56dd14610596578063e985e9c51461053b578063eacabe14146101785763f2fde38b146100fb57600080fd5b3461017357602036600319011261017357610114610dfc565b61011c6110b6565b6001600160a01b0316801561015d57600680546001600160a01b0319811683179091556001600160a01b031660008051602061123b833981519152600080a3005b631e4fbdf760e01b600052600060045260246000fd5b600080fd5b3461017357604036600319011261017357610191610dfc565b6024356001600160401b0381116101735736602382011215610173576101c1903690602481600401359101610ea0565b906101ca6110b6565b600754600019811461052557600181016007556020926040516101ed8582610e62565b600081526001600160a01b03841693841561050f5760008481526002875260018060a01b0360408220541685878260008051602061125b83398151915281151595866104ee575b83815260038d5260408082208054600101905585825260028e52812080546001600160a01b0319168517905580a4506104d85785903b6103bf575b505060008281526008855260409020815190916001600160401b0382116103a957819061029c8454610ed7565b601f811161036e575b508690601f8311600114610309576000926102fe575b50508160011b916000199060031b1c19161790555b80604051927f4cc0a9c4a99ddc700de1af2c9f916a7cbfdb71f14801ccff94061ad1ef8a8040600080a38152f35b0151905086806102bb565b60008581528881209350601f198516905b8982821061035857505090846001959493921061033f575b505050811b0190556102d0565b015160001960f88460031b161c19169055868080610332565b600185968293968601518155019501930161031a565b610399908560005288600020601f850160051c8101918a861061039f575b601f0160051c019061107c565b876102a5565b909150819061038c565b634e487b7160e01b600052604160045260246000fd5b6103f89160405180938192630a85bd0160e11b835233600484015260006024840152876044840152608060648401526084830190610dbb565b03816000885af18091600091610493575b50906104605783853d15610459573d61042181610e85565b9061042f6040519283610e62565b81523d60008383013e5b805191826104565783633250574960e11b60005260045260246000fd5b01fd5b6060610439565b6001600160e01b03191663757a42ff60e11b0161047e57848461026f565b82633250574960e11b60005260045260246000fd5b8681813d83116104d1575b6104a88183610e62565b810103126104cd5751906001600160e01b0319821682036104ca575086610409565b80fd5b5080fd5b503d61049e565b6339e3563760e11b600052600060045260246000fd5b6104f78561121c565b82815260038d52604081208054600019019055610234565b633250574960e11b600052600060045260246000fd5b634e487b7160e01b600052601160045260246000fd5b3461017357604036600319011261017357610554610dfc565b61055c610e12565b9060018060a01b0316600052600560205260406000209060018060a01b0316600052602052602060ff604060002054166040519015158152f35b346101735760203660031901126101735760043560005260086020526040600020604051906000908054906105ca82610ed7565b808552916001811690811561064b575060011461060a575b610606846105f281860382610e62565b604051918291602083526020830190610dbb565b0390f35b600090815260208120939250905b808210610631575090915081016020016105f2826105e2565b919260018160209254838588010152019101909291610618565b60ff191660208087019190915292151560051b850190920192506105f291508390506105e2565b346101735760803660031901126101735761068b610dfc565b610693610e12565b6064359190604435906001600160401b0384116101735736602385011215610173576106cc6106de943690602481600401359101610ea0565b926106d8838383610f11565b336110df565b005b34610173576040366003190112610173576106f9610dfc565b60243590811515809203610173576001600160a01b031690811561076c57336000526005602052604060002082600052602052604060002060ff1981541660ff83161790556040519081527f17307eab39ab6107e8899845ad3d59bd9653f200f220920489ca2b5937696c3160203392a3005b50630b61174360e31b60005260045260246000fd5b346101735760003660031901126101735760405160006001546107a381610ed7565b808452906001811690811561082a57506001146107cb575b610606836105f281850382610e62565b600160009081527fb10e2d527612073b26eecdfd717e6a320cf44b4afac2b0732d9fcbe2b7fa0cf6939250905b808210610810575090915081016020016105f26107bb565b9192600181602092548385880101520191019092916107f8565b60ff191660208086019190915291151560051b840190910191506105f290506107bb565b34610173576000366003190112610173576006546040516001600160a01b039091168152602090f35b34610173576000366003190112610173576108906110b6565b600680546001600160a01b031981169091556000906001600160a01b031660008051602061123b8339815191528280a3005b34610173576020366003190112610173576001600160a01b036108e3610dfc565b1680156109025760005260036020526020604060002054604051908152f35b6322718ad960e21b600052600060045260246000fd5b34610173576020366003190112610173576020610936600435611093565b6040516001600160a01b039091168152f35b34610173576000366003190112610173576009546040516001600160a01b039091168152602090f35b3461017357602036600319011261017357600954600435906001600160a01b03163303610aaf576000818152600260205260408120546001600160a01b031680159183908315610a8d575b81815260026020526040812080546001600160a01b03191690558260008051602061125b8339815191528280a450610a79578060005260086020526040600020610a068154610ed7565b9081610a35575b827f3c176691ca154a2f6fe978a2a633a33ee77dbe2902e67a75400720845a4b2ce1600080a2005b81601f60009311600114610a4d5750555b8180610a0d565b81835260208320610a6991601f0160051c81019060010161107c565b8082528160208120915555610a46565b637e27328960e01b60005260045260246000fd5b610a968261121c565b82815260036020526040812080546000190190556109bc565b60405162461bcd60e51b815260206004820152601e60248201527f4f6e6c792072656379636c696e672063656e7465722063616e206275726e00006044820152606490fd5b34610173576106de610b0536610e28565b9060405192610b15602085610e62565b600084526106d8838383610f11565b34610173576106de610b3536610e28565b91610f11565b3461017357602036600319011261017357610b54610dfc565b610b5c6110b6565b600980546001600160a01b0319166001600160a01b0392909216919091179055005b3461017357604036600319011261017357610b97610dfc565b602435610ba381611093565b33151580610c5a575b80610c2c575b610c175781906001600160a01b0384811691167f8c5be1e5ebec7d5bd14f71427d1e84f3dd0314c0f7b2291e5b200ac8c7c3b925600080a4600090815260046020526040902080546001600160a01b0319166001600160a01b03909216919091179055005b63a9fbf51f60e01b6000523360045260246000fd5b506001600160a01b038116600090815260056020908152604080832033845290915290205460ff1615610bb2565b506001600160a01b038116331415610bac565b3461017357602036600319011261017357600435610c8a81611093565b506000526004602052602060018060a01b0360406000205416604051908152f35b346101735760003660031901126101735760405160008054610ccc81610ed7565b808452906001811690811561082a5750600114610cf357610606836105f281850382610e62565b60008080527f290decd9548b62a8d60345a988386fc84ba6bc95484008f6362f93160ef3e563939250905b808210610d36575090915081016020016105f26107bb565b919260018160209254838588010152019101909291610d1e565b34610173576020366003190112610173576004359063ffffffff60e01b8216809203610173576020916380ac58cd60e01b8114908115610daa575b8115610d99575b5015158152f35b6301ffc9a760e01b14905083610d92565b635b5e139f60e01b81149150610d8b565b919082519283825260005b848110610de7575050826000602080949584010152601f8019910116010190565b80602080928401015182828601015201610dc6565b600435906001600160a01b038216820361017357565b602435906001600160a01b038216820361017357565b6060906003190112610173576004356001600160a01b038116810361017357906024356001600160a01b0381168103610173579060443590565b601f909101601f19168101906001600160401b038211908210176103a957604052565b6001600160401b0381116103a957601f01601f191660200190565b929192610eac82610e85565b91610eba6040519384610e62565b829481845281830111610173578281602093846000960137010152565b90600182811c92168015610f07575b6020831014610ef157565b634e487b7160e01b600052602260045260246000fd5b91607f1691610ee6565b6001600160a01b039091169190821561050f576000828152600260205260408120546001600160a01b0316938391859033151580610fe4575b5060008051602061125b8339815191529082610fc2575b838152600360209081526040808320805460010190558683526002909152812080546001600160a01b0319168517905580a46001600160a01b0316808303610fa857505050565b6364283d7b60e01b60005260045260245260445260646000fd5b610fcb8561121c565b8281526003602052604081208054600019019055610f61565b91509192508061102d575b15610ffe579084849238610f4a565b83908561101757602491637e27328960e01b8252600452fd5b60449163177e802f60e01b825233600452602452fd5b50338514801561105b575b80610fef5750838152600460205260408120546001600160a01b03163314610fef565b5084815260056020908152604080832033845290915281205460ff16611038565b818110611087575050565b6000815560010161107c565b6000818152600260205260409020546001600160a01b0316908115610a79575090565b6006546001600160a01b031633036110ca57565b63118cdaa760e01b6000523360045260246000fd5b823b6110ed575b5050505050565b604051630a85bd0160e11b81526001600160a01b039182166004820152918116602483015260448201939093526080606482015291169160209082908190611139906084830190610dbb565b03816000865af180916000916111d9575b50906111a357503d1561119c573d61116181610e85565b9061116f6040519283610e62565b81523d6000602083013e5b805190816111975782633250574960e11b60005260045260246000fd5b602001fd5b606061117a565b6001600160e01b03191663757a42ff60e11b016111c5575038808080806110e6565b633250574960e11b60005260045260246000fd5b6020813d602011611214575b816111f260209383610e62565b810103126104cd5751906001600160e01b0319821682036104ca57503861114a565b3d91506111e5565b600090815260046020526040902080546001600160a01b031916905556fe8be0079c531659141344cd1fd0a4f28419497f9722a3daafe3b4186f6b6457e0ddf252ad1be2c89b69c2b068fc378daa952ba7f163c4a11628f55a4df523b3efa264697066735822122075a226ac627d205ee1e57e894f4ec45d3de24973836c5099d44b24b974d26d2864736f6c634300081c0033",
  "linkReferences": {},
  "deployedLinkReferences": {}
}