{
  "_format": "hh-sol-artifact-1",
  "contractName": "CircularNFT",
  "sourceName": "contracts/CircularNFT.sol",
  "abi": [
    {
      "inputs": [
        {
          "internalType": "address",
          "name": "initialOwner",
          "type": "address"
        }
      ],
      "stateMutability": "nonpayable",
      "type": "constructor"
    },
    {
      "inputs": [
        {
          "internalType": "address",
          "name": "sender",
          "type": "address"
        },
        {
          "internalType": "uint256",
          "name": "tokenId",
          "type": "uint256"
        },
        {
          "internalType": "address",
          "name": "owner",
          "type": "address"
        }
      ],
      "name": "ERC721IncorrectOwner",
      "type": "error"
    },
    {
      "inputs": [
        {
          "internalType": "address",
          "name": "operator",
          "type": "address"
        },
        {
          "internalType": "uint256",
          "name": "tokenId",
          "type": "uint256"
        }
      ],
      "name": "ERC721InsufficientApproval",
      "type": "error"
    },
    {
      "inputs": [
        {
          "internalType": "address",
          "name": "approver",
          "type": "address"
        }
      ],
      "name": "ERC721InvalidApprover",
      "type": "error"
    },
    {
      "inputs": [
        {
          "internalType": "address",
          "name": "operator",
          "type": "address"
        }
      ],
      "name": "ERC721InvalidOperator",
      "type": "error"
    },
    {
      "inputs": [
        {
          "internalType": "address",
          "name": "owner",
          "type": "address"
        }
      ],
      "name": "ERC721InvalidOwner",
      "type": "error"
    },
    {
      "inputs": [
        {
          "internalType": "address",
          "name": "receiver",
          "type": "address"
        }
      ],
      "name": "ERC721InvalidReceiver",
      "type": "error"
    },
    {
      "inputs": [
        {
          "internalType": "address",
          "name": "sender",
          "type": "address"
        }
      ],
      "name": "ERC721InvalidSender",
      "type": "error"
    },
    {
      "inputs": [
        {
          "internalType": "uint256",
          "name": "tokenId",
          "type": "uint256"
        }
      ],
      "name": "ERC721NonexistentToken",
      "type": "error"
    },
    {
      "inputs": [
        {
          "internalType": "address",
          "name": "owner",
          "type": "address"
        }
      ],
      "name": "OwnableInvalidOwner",
      "type": "error"
    },
    {
      "inputs": [
        {
          "internalType": "address",
          "name": "account",
          "type": "address"
        }
      ],
      "name": "OwnableUnauthorizedAccount",
      "type": "error"
    },
    {
      "anonymous": false,
      "inputs": [
        {
          "indexed": true,
          "internalType": "address",
          "name": "owner",
          "type": "address"
        },
        {
          "indexed": true,
          "internalType": "address",
          "name": "approved",
          "type": "address"
        },
        {
          "indexed": true,
          "internalType": "uint256",
          "name": "tokenId",
          "type": "uint256"
        }
      ],
      "name": "Approval",
      "type": "event"
    },
    {
      "anonymous": false,
      "inputs": [
        {
          "indexed": true,
          "internalType": "address",
          "name": "owner",
          "type": "address"
        },
        {
          "indexed": true,
          "internalType": "address",
          "name": "operator",
          "type": "address"
        },
        {
          "indexed": false,
          "internalType": "bool",
          "name": "approved",
          "type": "bool"
        }
      ],
      "name": "ApprovalForAll",
      "type": "event"
    },
    {
      "anonymous": false,
      "inputs": [
        {
          "indexed": true,
          "internalType": "uint256",
          "name": "tokenId",
          "type": "uint256"
        }
      ],
      "name": "NFTBurned",
      "type": "event"
    },
    {
      "anonymous": false,
      "inputs": [
        {
          "indexed": true,
          "internalType": "address",
          "name": "to",
          "type": "address"
        },
        {
          "indexed": true,
          "internalType": "uint256",
          "name": "tokenId",
          "type": "uint256"
        },
        {
          "indexed": false,
          "internalType": "string",
          "name": "tokenURI",
          "type": "string"
        }
      ],
      "name": "NFTMinted",
      "type": "event"
    },
    {
      "anonymous": false,
      "inputs": [
        {
          "indexed": true,
          "internalType": "address",
          "name": "previousOwner",
          "type": "address"
        },
        {
          "indexed": true,
          "internalType": "address",
          "name": "newOwner",
          "type": "address"
        }
      ],
      "name": "OwnershipTransferred",
      "type": "event"
    },
    {
      "anonymous": false,
      "inputs": [
        {
          "indexed": true,
          "internalType": "address",
          "name": "from",
          "type": "address"
        },
        {
          "indexed": true,
          "internalType": "address",
          "name": "to",
          "type": "address"
        },
        {
          "indexed": true,
          "internalType": "uint256",
          "name": "tokenId",
          "type": "uint256"
        }
      ],
      "name": "Transfer",
      "type": "event"
    },
    {
      "inputs": [
        {
          "internalType": "address",
          "name": "to",
          "type": "address"
        },
        {
          "internalType": "uint256",
          "name": "tokenId",
          "type": "uint256"
        }
      ],
      "name": "approve",
      "outputs": [],
      "stateMutability": "nonpayable",
      "type": "function"
    },
    {
      "inputs": [
        {
          "internalType": "address",
          "name": "owner",
          "type": "address"
        }
      ],
      "name": "balanceOf",
      "outputs": [
        {
          "internalType": "uint256",
          "name": "",
          "type": "uint256"
        }
      ],
      "stateMutability": "view",
      "type": "function"
    },
    {
      "inputs": [
        {
          "internalType": "uint256",
          "name": "tokenId",
          "type": "uint256"
        }
      ],
      "name": "burn",
      "outputs": [],
      "stateMutability": "nonpayable",
      "type": "function"
    },
    {
      "inputs": [
        {
          "internalType": "uint256",
          "name": "tokenId",
          "type": "uint256"
        }
      ],
      "name": "getApproved",
      "outputs": [
        {
          "internalType": "address",
          "name": "",
          "type": "address"
        }
      ],
      "stateMutability": "view",
      "type": "function"
    },
    {
      "inputs": [
        {
          "internalType": "address",
          "name": "owner",
          "type": "address"
        },
        {
          "internalType": "address",
          "name": "operator",
          "type": "address"
        }
      ],
      "name": "isApprovedForAll",
      "outputs": [
        {
          "internalType": "bool",
          "name": "",
          "type": "bool"
        }
      ],
      "stateMutability": "view",
      "type": "function"
    },
    {
      "inputs": [
        {
          "internalType": "address",
          "name": "to",
          "type": "address"
        },
        {
          "internalType": "string",
          "name": "_tokenURI",
          "type": "string"
        }
      ],
      "name": "mintNFT",
      "outputs": [
        {
          "internalType": "uint256",
          "name": "",
          "type": "uint256"
        }
      ],
      "stateMutability": "nonpayable",
      "type": "function"
    },
    {
      "inputs": [],
      "name": "name",
      "outputs": [
        {
          "internalType": "string",
          "name": "",
          "type": "string"
        }
      ],
      "stateMutability": "view",
      "type": "function"
    },
    {
      "inputs": [],
      "name": "owner",
      "outputs": [
        {
          "internalType": "address",
          "name": "",
          "type": "address"
        }
      ],
      "stateMutability": "view",
      "type": "function"
    },
    {
      "inputs": [
        {
          "internalType": "uint256",
          "name": "tokenId",
          "type": "uint256"
        }
      ],
      "name": "ownerOf",
      "outputs": [
        {
          "internalType": "address",
          "name": "",
          "type": "address"
        }
      ],
      "stateMutability": "view",
      "type": "function"
    },
    {
      "inputs": [],
      "name": "recyclingCenter",
      "outputs": [
        {
          "internalType": "address",
          "name": "",
          "type": "address"
        }
      ],
      "stateMutability": "view",
      "type": "function"
    },
    {
      "inputs": [],
      "name": "renounceOwnership",
      "outputs": [],
      "stateMutability": "nonpayable",
      "type": "function"
    },
    {
      "inputs": [
        {
          "internalType": "address",
          "name": "from",
          "type": "address"
        },
        {
          "internalType": "address",
          "name": "to",
          "type": "address"
        },
        {
          "internalType": "uint256",
          "name": "tokenId",
          "type": "uint256"
        }
      ],
      "name": "safeTransferFrom",
      "outputs": [],
      "stateMutability": "nonpayable",
      "type": "function"
    },
    {
      "inputs": [
        {
          "internalType": "address",
          "name": "from",
          "type": "address"
        },
        {
          "internalType": "address",
          "name": "to",
          "type": "address"
        },
        {
          "internalType": "uint256",
          "name": "tokenId",
          "type": "uint256"
        },
        {
          "internalType": "bytes",
          "name": "data",
          "type": "bytes"
        }
      ],
      "name": "safeTransferFrom",
      "outputs": [],
      "stateMutability": "nonpayable",
      "type": "function"
    },
    {
      "inputs": [
        {
          "internalType": "address",
          "name": "operator",
          "type": "address"
        },
        {
          "internalType": "bool",
          "name": "approved",
          "type": "bool"
        }
      ],
      "name": "setApprovalForAll",
      "outputs": [],
      "stateMutability": "nonpayable",
      "type": "function"
    },
    {
      "inputs": [
        {
          "internalType": "address",
          "name": "_recyclingCenter",
          "type": "address"
        }
      ],
      "name": "setRecyclingCenter",
      "outputs": [],
      "stateMutability": "nonpayable",
      "type": "function"
    },
    {
      "inputs": [
        {
          "internalType": "bytes4",
          "name": "interfaceId",
          "type": "bytes4"
        }
      ],
      "name": "supportsInterface",
      "outputs": [
        {
          "internalType": "bool",
          "name": "",
          "type": "bool"
        }
      ],
      "stateMutability": "view",
      "type": "function"
    },
    {
      "inputs": [],
      "name": "symbol",
      "outputs": [
        {
          "internalType": "string",
          "name": "",
          "type": "string"
        }
      ],
      "stateMutability": "view",
      "type": "function"
    },
    {
      "inputs": [
        {
          "internalType": "uint256",
          "name": "tokenId",
          "type": "uint256"
        }
      ],
      "name": "tokenURI",
      "outputs": [
        {
          "internalType": "string",
          "name": "",
          "type": "string"
        }
      ],
      "stateMutability": "view",
      "type": "function"
    },
    {
      "inputs": [
        {
          "internalType": "address",
          "name": "from",
          "type": "address"
        },
        {
          "internalType": "address",
          "name": "to",
          "type": "address"
        },
        {
          "internalType": "uint256",
          "name": "tokenId",
          "type": "uint256"
        }
      ],
      "name": "transferFrom",
      "outputs": [],
      "stateMutability": "nonpayable",
      "type": "function"
    },
    {
      "inputs": [
        {
          "internalType": "address",
          "name": "newOwner",
          "type": "address"
        }
      ],
      "name": "transferOwnership",
      "outputs": [],
      "stateMutability": "nonpayable",
      "type": "function"
    }
  ],
  "bytecode": "0x60806040523480156200001157600080fd5b5060405162002de238038062002de2833981810160405281019062000037919062000288565b806040518060400160405280600b81526020017f43697263756c61724e46540000000000000000000000000000000000000000008152506040518060400160405280600581526020017f43524e46540000000000000000000000000000000000000000000000000000008152508160009081620000b5919062000534565b508060019081620000c7919062000534565b505050600073ffffffffffffffffffffffffffffffffffffffff168173ffffffffffffffffffffffffffffffffffffffff16036200013f5760006040517f1e4fbdf70000000000000000000000000000000000000000000000000000000081526004016200013691906200062c565b60405180910390fd5b62000150816200015860201b60201c565b505062000649565b6000600660009054906101000a900473ffffffffffffffffffffffffffffffffffffffff16905081600660006101000a81548173ffffffffffffffffffffffffffffffffffffffff021916908373ffffffffffffffffffffffffffffffffffffffff1602179055508173ffffffffffffffffffffffffffffffffffffffff168173ffffffffffffffffffffffffffffffffffffffff167f8be0079c531659141344cd1fd0a4f28419497f9722a3daafe3b4186f6b6457e060405160405180910390a35050565b600080fd5b600073ffffffffffffffffffffffffffffffffffffffff82169050919050565b6000620002508262000223565b9050919050565b620002628162000243565b81146200026e57600080fd5b50565b600081519050620002828162000257565b92915050565b600060208284031215620002a157620002a06200021e565b5b6000620002b18482850162000271565b91505092915050565b600081519050919050565b7f4e487b7100000000000000000000000000000000000000000000000000000000600052604160045260246000fd5b7f4e487b7100000000000000000000000000000000000000000000000000000000600052602260045260246000fd5b600060028204905060018216806200033c57607f821691505b602082108103620003525762000351620002f4565b5b50919050565b60008190508160005260206000209050919050565b60006020601f8301049050919050565b600082821b905092915050565b600060088302620003bc7fffffffffffffffffffffffffffffffffffffffffffffffffffffffffffffffff826200037d565b620003c886836200037d565b95508019841693508086168417925050509392505050565b6000819050919050565b6000819050919050565b6000620004156200040f6200040984620003e0565b620003ea565b620003e0565b9050919050565b6000819050919050565b6200043183620003f4565b6200044962000440826200041c565b8484546200038a565b825550505050565b600090565b6200046062000451565b6200046d81848462000426565b505050565b5b8181101562000495576200048960008262000456565b60018101905062000473565b5050565b601f821115620004e457620004ae8162000358565b620004b9846200036d565b81016020851015620004c9578190505b620004e1620004d8856200036d565b83018262000472565b50505b505050565b600082821c905092915050565b60006200050960001984600802620004e9565b1980831691505092915050565b6000620005248383620004f6565b9150826002028217905092915050565b6200053f82620002ba565b67ffffffffffffffff8111156200055b576200055a620002c5565b5b62000567825462000323565b6200057482828562000499565b600060209050601f831160018114620005ac576000841562000597578287015190505b620005a3858262000516565b86555062000613565b601f198416620005bc8662000358565b60005b82811015620005e657848901518255600182019150602085019450602081019050620005bf565b8683101562000606578489015162000602601f891682620004f6565b8355505b6001600288020188555050505b505050505050565b620006268162000243565b82525050565b60006020820190506200064360008301846200061b565b92915050565b61278980620006596000396000f3fe608060405234801561001057600080fd5b506004361061012c5760003560e01c806370a08231116100ad578063b88d4fde11610071578063b88d4fde1461031b578063c87b56dd14610337578063e985e9c514610367578063eacabe1414610397578063f2fde38b146103c75761012c565b806370a0823114610289578063715018a6146102b95780638da5cb5b146102c357806395d89b41146102e1578063a22cb465146102ff5761012c565b806323b872dd116100f457806323b872dd146101e757806342842e0e1461020357806342966c681461021f57806348403c031461023b5780636352211e146102595761012c565b806301ffc9a71461013157806306fdde0314610161578063081812fc1461017f578063095ea7b3146101af5780631c2ca3c9146101cb575b600080fd5b61014b60048036038101906101469190611b98565b6103e3565b6040516101589190611be0565b60405180910390f35b6101696104c5565b6040516101769190611c8b565b60405180910390f35b61019960048036038101906101949190611ce3565b610557565b6040516101a69190611d51565b60405180910390f35b6101c960048036038101906101c49190611d98565b610573565b005b6101e560048036038101906101e09190611dd8565b610589565b005b61020160048036038101906101fc9190611e05565b6105d5565b005b61021d60048036038101906102189190611e05565b6106d7565b005b61023960048036038101906102349190611ce3565b6106f7565b005b610243610856565b6040516102509190611d51565b60405180910390f35b610273600480360381019061026e9190611ce3565b61087c565b6040516102809190611d51565b60405180910390f35b6102a3600480360381019061029e9190611dd8565b61088e565b6040516102b09190611e67565b60405180910390f35b6102c1610948565b005b6102cb61095c565b6040516102d89190611d51565b60405180910390f35b6102e9610986565b6040516102f69190611c8b565b60405180910390f35b61031960048036038101906103149190611eae565b610a18565b005b61033560048036038101906103309190612023565b610a2e565b005b610351600480360381019061034c9190611ce3565b610a53565b60405161035e9190611c8b565b60405180910390f35b610381600480360381019061037c91906120a6565b610b6f565b60405161038e9190611be0565b60405180910390f35b6103b160048036038101906103ac9190612187565b610c03565b6040516103be9190611e67565b60405180910390f35b6103e160048036038101906103dc9190611dd8565b610c95565b005b60007f80ac58cd000000000000000000000000000000000000000000000000000000007bffffffffffffffffffffffffffffffffffffffffffffffffffffffff1916827bffffffffffffffffffffffffffffffffffffffffffffffffffffffff191614806104ae57507f5b5e139f000000000000000000000000000000000000000000000000000000007bffffffffffffffffffffffffffffffffffffffffffffffffffffffff1916827bffffffffffffffffffffffffffffffffffffffffffffffffffffffff1916145b806104be57506104bd82610d1b565b5b9050919050565b6060600080546104d490612212565b80601f016020809104026020016040519081016040528092919081815260200182805461050090612212565b801561054d5780601f106105225761010080835404028352916020019161054d565b820191906000526020600020905b81548152906001019060200180831161053057829003601f168201915b5050505050905090565b600061056282610d85565b5061056c82610e0d565b9050919050565b6105858282610580610e4a565b610e52565b5050565b610591610e64565b80600960006101000a81548173ffffffffffffffffffffffffffffffffffffffff021916908373ffffffffffffffffffffffffffffffffffffffff16021790555050565b600073ffffffffffffffffffffffffffffffffffffffff168273ffffffffffffffffffffffffffffffffffffffff16036106475760006040517f64a0ae9200000000000000000000000000000000000000000000000000000000815260040161063e9190611d51565b60405180910390fd5b600061065b8383610656610e4a565b610eeb565b90508373ffffffffffffffffffffffffffffffffffffffff168173ffffffffffffffffffffffffffffffffffffffff16146106d1578382826040517f64283d7b0000000000000000000000000000000000000000000000000000000081526004016106c893929190612243565b60405180910390fd5b50505050565b6106f283838360405180602001604052806000815250610a2e565b505050565b600960009054906101000a900473ffffffffffffffffffffffffffffffffffffffff1673ffffffffffffffffffffffffffffffffffffffff163373ffffffffffffffffffffffffffffffffffffffff1614610787576040517f08c379a000000000000000000000000000000000000000000000000000000000815260040161077e906122c6565b60405180910390fd5b600073ffffffffffffffffffffffffffffffffffffffff166107a88261087c565b73ffffffffffffffffffffffffffffffffffffffff16036107fe576040517f08c379a00000000000000000000000000000000000000000000000000000000081526004016107f590612332565b60405180910390fd5b61080781611105565b6008600082815260200190815260200160002060006108269190611acf565b807f3c176691ca154a2f6fe978a2a633a33ee77dbe2902e67a75400720845a4b2ce160405160405180910390a250565b600960009054906101000a900473ffffffffffffffffffffffffffffffffffffffff1681565b600061088782610d85565b9050919050565b60008073ffffffffffffffffffffffffffffffffffffffff168273ffffffffffffffffffffffffffffffffffffffff16036109015760006040517f89c62b640000000000000000000000000000000000000000000000000000000081526004016108f89190611d51565b60405180910390fd5b600360008373ffffffffffffffffffffffffffffffffffffffff1673ffffffffffffffffffffffffffffffffffffffff168152602001908152602001600020549050919050565b610950610e64565b61095a600061118b565b565b6000600660009054906101000a900473ffffffffffffffffffffffffffffffffffffffff16905090565b60606001805461099590612212565b80601f01602080910402602001604051908101604052809291908181526020018280546109c190612212565b8015610a0e5780601f106109e357610100808354040283529160200191610a0e565b820191906000526020600020905b8154815290600101906020018083116109f157829003601f168201915b5050505050905090565b610a2a610a23610e4a565b8383611251565b5050565b610a398484846105d5565b610a4d610a44610e4a565b858585856113c0565b50505050565b6060600073ffffffffffffffffffffffffffffffffffffffff16610a768361087c565b73ffffffffffffffffffffffffffffffffffffffff1603610acc576040517f08c379a0000000000000000000000000000000000000000000000000000000008152600401610ac390612332565b60405180910390fd5b600860008381526020019081526020016000208054610aea90612212565b80601f0160208091040260200160405190810160405280929190818152602001828054610b1690612212565b8015610b635780601f10610b3857610100808354040283529160200191610b63565b820191906000526020600020905b815481529060010190602001808311610b4657829003601f168201915b50505050509050919050565b6000600560008473ffffffffffffffffffffffffffffffffffffffff1673ffffffffffffffffffffffffffffffffffffffff16815260200190815260200160002060008373ffffffffffffffffffffffffffffffffffffffff1673ffffffffffffffffffffffffffffffffffffffff16815260200190815260200160002060009054906101000a900460ff16905092915050565b6000610c0d610e64565b600060076000815480929190610c2290612381565b919050559050610c328482611571565b610c3c818461158f565b808473ffffffffffffffffffffffffffffffffffffffff167fd35bb95e09c04b219e35047ce7b7b300e3384264ef84a40456943dbc0fc17c1485604051610c839190611c8b565b60405180910390a38091505092915050565b610c9d610e64565b600073ffffffffffffffffffffffffffffffffffffffff168173ffffffffffffffffffffffffffffffffffffffff1603610d0f5760006040517f1e4fbdf7000000000000000000000000000000000000000000000000000000008152600401610d069190611d51565b60405180910390fd5b610d188161118b565b50565b60007f01ffc9a7000000000000000000000000000000000000000000000000000000007bffffffffffffffffffffffffffffffffffffffffffffffffffffffff1916827bffffffffffffffffffffffffffffffffffffffffffffffffffffffff1916149050919050565b600080610d918361162b565b9050600073ffffffffffffffffffffffffffffffffffffffff168173ffffffffffffffffffffffffffffffffffffffff1603610e0457826040517f7e273289000000000000000000000000000000000000000000000000000000008152600401610dfb9190611e67565b60405180910390fd5b80915050919050565b60006004600083815260200190815260200160002060009054906101000a900473ffffffffffffffffffffffffffffffffffffffff169050919050565b600033905090565b610e5f8383836001611668565b505050565b610e6c610e4a565b73ffffffffffffffffffffffffffffffffffffffff16610e8a61095c565b73ffffffffffffffffffffffffffffffffffffffff1614610ee957610ead610e4a565b6040517f118cdaa7000000000000000000000000000000000000000000000000000000008152600401610ee09190611d51565b60405180910390fd5b565b600080610ef78461162b565b9050600073ffffffffffffffffffffffffffffffffffffffff168373ffffffffffffffffffffffffffffffffffffffff1614610f3957610f3881848661182d565b5b600073ffffffffffffffffffffffffffffffffffffffff168173ffffffffffffffffffffffffffffffffffffffff1614610fca57610f7b600085600080611668565b6001600360008373ffffffffffffffffffffffffffffffffffffffff1673ffffffffffffffffffffffffffffffffffffffff168152602001908152602001600020600082825403925050819055505b600073ffffffffffffffffffffffffffffffffffffffff168573ffffffffffffffffffffffffffffffffffffffff161461104d576001600360008773ffffffffffffffffffffffffffffffffffffffff1673ffffffffffffffffffffffffffffffffffffffff168152602001908152602001600020600082825401925050819055505b846002600086815260200190815260200160002060006101000a81548173ffffffffffffffffffffffffffffffffffffffff021916908373ffffffffffffffffffffffffffffffffffffffff160217905550838573ffffffffffffffffffffffffffffffffffffffff168273ffffffffffffffffffffffffffffffffffffffff167fddf252ad1be2c89b69c2b068fc378daa952ba7f163c4a11628f55a4df523b3ef60405160405180910390a4809150509392505050565b60006111146000836000610eeb565b9050600073ffffffffffffffffffffffffffffffffffffffff168173ffffffffffffffffffffffffffffffffffffffff160361118757816040517f7e27328900000000000000000000000000000000000000000000000000000000815260040161117e9190611e67565b60405180910390fd5b5050565b6000600660009054906101000a900473ffffffffffffffffffffffffffffffffffffffff16905081600660006101000a81548173ffffffffffffffffffffffffffffffffffffffff021916908373ffffffffffffffffffffffffffffffffffffffff1602179055508173ffffffffffffffffffffffffffffffffffffffff168173ffffffffffffffffffffffffffffffffffffffff167f8be0079c531659141344cd1fd0a4f28419497f9722a3daafe3b4186f6b6457e060405160405180910390a35050565b600073ffffffffffffffffffffffffffffffffffffffff168273ffffffffffffffffffffffffffffffffffffffff16036112c257816040517f5b08ba180000000000000000000000000000000000000000000000000000000081526004016112b99190611d51565b60405180910390fd5b80600560008573ffffffffffffffffffffffffffffffffffffffff1673ffffffffffffffffffffffffffffffffffffffff16815260200190815260200160002060008473ffffffffffffffffffffffffffffffffffffffff1673ffffffffffffffffffffffffffffffffffffffff16815260200190815260200160002060006101000a81548160ff0219169083151502179055508173ffffffffffffffffffffffffffffffffffffffff168373ffffffffffffffffffffffffffffffffffffffff167f17307eab39ab6107e8899845ad3d59bd9653f200f220920489ca2b5937696c31836040516113b39190611be0565b60405180910390a3505050565b60008373ffffffffffffffffffffffffffffffffffffffff163b111561156a578273ffffffffffffffffffffffffffffffffffffffff1663150b7a02868685856040518563ffffffff1660e01b815260040161141f949392919061241e565b6020604051808303816000875af192505050801561145b57506040513d601f19601f82011682018060405250810190611458919061247f565b60015b6114df573d806000811461148b576040519150601f19603f3d011682016040523d82523d6000602084013e611490565b606091505b5060008151036114d757836040517f64a0ae920000000000000000000000000000000000000000000000000000000081526004016114ce9190611d51565b60405180910390fd5b805181602001fd5b63150b7a0260e01b7bffffffffffffffffffffffffffffffffffffffffffffffffffffffff1916817bffffffffffffffffffffffffffffffffffffffffffffffffffffffff19161461156857836040517f64a0ae9200000000000000000000000000000000000000000000000000000000815260040161155f9190611d51565b60405180910390fd5b505b5050505050565b61158b8282604051806020016040528060008152506118f1565b5050565b600073ffffffffffffffffffffffffffffffffffffffff166115b08361087c565b73ffffffffffffffffffffffffffffffffffffffff1603611606576040517f08c379a00000000000000000000000000000000000000000000000000000000081526004016115fd90612332565b60405180910390fd5b806008600084815260200190815260200160002090816116269190612658565b505050565b60006002600083815260200190815260200160002060009054906101000a900473ffffffffffffffffffffffffffffffffffffffff169050919050565b80806116a15750600073ffffffffffffffffffffffffffffffffffffffff168273ffffffffffffffffffffffffffffffffffffffff1614155b156117d55760006116b184610d85565b9050600073ffffffffffffffffffffffffffffffffffffffff168373ffffffffffffffffffffffffffffffffffffffff161415801561171c57508273ffffffffffffffffffffffffffffffffffffffff168173ffffffffffffffffffffffffffffffffffffffff1614155b801561172f575061172d8184610b6f565b155b1561177157826040517fa9fbf51f0000000000000000000000000000000000000000000000000000000081526004016117689190611d51565b60405180910390fd5b81156117d357838573ffffffffffffffffffffffffffffffffffffffff168273ffffffffffffffffffffffffffffffffffffffff167f8c5be1e5ebec7d5bd14f71427d1e84f3dd0314c0f7b2291e5b200ac8c7c3b92560405160405180910390a45b505b836004600085815260200190815260200160002060006101000a81548173ffffffffffffffffffffffffffffffffffffffff021916908373ffffffffffffffffffffffffffffffffffffffff16021790555050505050565b611838838383611915565b6118ec57600073ffffffffffffffffffffffffffffffffffffffff168373ffffffffffffffffffffffffffffffffffffffff16036118ad57806040517f7e2732890000000000000000000000000000000000000000000000000000000081526004016118a49190611e67565b60405180910390fd5b81816040517f177e802f0000000000000000000000000000000000000000000000000000000081526004016118e392919061272a565b60405180910390fd5b505050565b6118fb83836119d6565b611910611906610e4a565b60008585856113c0565b505050565b60008073ffffffffffffffffffffffffffffffffffffffff168373ffffffffffffffffffffffffffffffffffffffff16141580156119cd57508273ffffffffffffffffffffffffffffffffffffffff168473ffffffffffffffffffffffffffffffffffffffff16148061198e575061198d8484610b6f565b5b806119cc57508273ffffffffffffffffffffffffffffffffffffffff166119b483610e0d565b73ffffffffffffffffffffffffffffffffffffffff16145b5b90509392505050565b600073ffffffffffffffffffffffffffffffffffffffff168273ffffffffffffffffffffffffffffffffffffffff1603611a485760006040517f64a0ae92000000000000000000000000000000000000000000000000000000008152600401611a3f9190611d51565b60405180910390fd5b6000611a5683836000610eeb565b9050600073ffffffffffffffffffffffffffffffffffffffff168173ffffffffffffffffffffffffffffffffffffffff1614611aca5760006040517f73c6ac6e000000000000000000000000000000000000000000000000000000008152600401611ac19190611d51565b60405180910390fd5b505050565b508054611adb90612212565b6000825580601f10611aed5750611b0c565b601f016020900490600052602060002090810190611b0b9190611b0f565b5b50565b5b80821115611b28576000816000905550600101611b10565b5090565b6000604051905090565b600080fd5b600080fd5b60007fffffffff0000000000000000000000000000000000000000000000000000000082169050919050565b611b7581611b40565b8114611b8057600080fd5b50565b600081359050611b9281611b6c565b92915050565b600060208284031215611bae57611bad611b36565b5b6000611bbc84828501611b83565b91505092915050565b60008115159050919050565b611bda81611bc5565b82525050565b6000602082019050611bf56000830184611bd1565b92915050565b600081519050919050565b600082825260208201905092915050565b60005b83811015611c35578082015181840152602081019050611c1a565b60008484015250505050565b6000601f19601f8301169050919050565b6000611c5d82611bfb565b611c678185611c06565b9350611c77818560208601611c17565b611c8081611c41565b840191505092915050565b60006020820190508181036000830152611ca58184611c52565b905092915050565b6000819050919050565b611cc081611cad565b8114611ccb57600080fd5b50565b600081359050611cdd81611cb7565b92915050565b600060208284031215611cf957611cf8611b36565b5b6000611d0784828501611cce565b91505092915050565b600073ffffffffffffffffffffffffffffffffffffffff82169050919050565b6000611d3b82611d10565b9050919050565b611d4b81611d30565b82525050565b6000602082019050611d666000830184611d42565b92915050565b611d7581611d30565b8114611d8057600080fd5b50565b600081359050611d9281611d6c565b92915050565b60008060408385031215611daf57611dae611b36565b5b6000611dbd85828601611d83565b9250506020611dce85828601611cce565b9150509250929050565b600060208284031215611dee57611ded611b36565b5b6000611dfc84828501611d83565b91505092915050565b600080600060608486031215611e1e57611e1d611b36565b5b6000611e2c86828701611d83565b9350506020611e3d86828701611d83565b9250506040611e4e86828701611cce565b9150509250925092565b611e6181611cad565b82525050565b6000602082019050611e7c6000830184611e58565b92915050565b611e8b81611bc5565b8114611e9657600080fd5b50565b600081359050611ea881611e82565b92915050565b60008060408385031215611ec557611ec4611b36565b5b6000611ed385828601611d83565b9250506020611ee485828601611e99565b9150509250929050565b600080fd5b600080fd5b7f4e487b7100000000000000000000000000000000000000000000000000000000600052604160045260246000fd5b611f3082611c41565b810181811067ffffffffffffffff82111715611f4f57611f4e611ef8565b5b80604052505050565b6000611f62611b2c565b9050611f6e8282611f27565b919050565b600067ffffffffffffffff821115611f8e57611f8d611ef8565b5b611f9782611c41565b9050602081019050919050565b82818337600083830152505050565b6000611fc6611fc184611f73565b611f58565b905082815260208101848484011115611fe257611fe1611ef3565b5b611fed848285611fa4565b509392505050565b600082601f83011261200a57612009611eee565b5b813561201a848260208601611fb3565b91505092915050565b6000806000806080858703121561203d5761203c611b36565b5b600061204b87828801611d83565b945050602061205c87828801611d83565b935050604061206d87828801611cce565b925050606085013567ffffffffffffffff81111561208e5761208d611b3b565b5b61209a87828801611ff5565b91505092959194509250565b600080604083850312156120bd576120bc611b36565b5b60006120cb85828601611d83565b92505060206120dc85828601611d83565b9150509250929050565b600067ffffffffffffffff82111561210157612100611ef8565b5b61210a82611c41565b9050602081019050919050565b600061212a612125846120e6565b611f58565b90508281526020810184848401111561214657612145611ef3565b5b612151848285611fa4565b509392505050565b600082601f83011261216e5761216d611eee565b5b813561217e848260208601612117565b91505092915050565b6000806040838503121561219e5761219d611b36565b5b60006121ac85828601611d83565b925050602083013567ffffffffffffffff8111156121cd576121cc611b3b565b5b6121d985828601612159565b9150509250929050565b7f4e487b7100000000000000000000000000000000000000000000000000000000600052602260045260246000fd5b6000600282049050600182168061222a57607f821691505b60208210810361223d5761223c6121e3565b5b50919050565b60006060820190506122586000830186611d42565b6122656020830185611e58565b6122726040830184611d42565b949350505050565b7f4f6e6c792072656379636c696e672063656e7465722063616e206275726e0000600082015250565b60006122b0601e83611c06565b91506122bb8261227a565b602082019050919050565b600060208201905081810360008301526122df816122a3565b9050919050565b7f546f6b656e20646f6573206e6f74206578697374000000000000000000000000600082015250565b600061231c601483611c06565b9150612327826122e6565b602082019050919050565b6000602082019050818103600083015261234b8161230f565b9050919050565b7f4e487b7100000000000000000000000000000000000000000000000000000000600052601160045260246000fd5b600061238c82611cad565b91507fffffffffffffffffffffffffffffffffffffffffffffffffffffffffffffffff82036123be576123bd612352565b5b600182019050919050565b600081519050919050565b600082825260208201905092915050565b60006123f0826123c9565b6123fa81856123d4565b935061240a818560208601611c17565b61241381611c41565b840191505092915050565b60006080820190506124336000830187611d42565b6124406020830186611d42565b61244d6040830185611e58565b818103606083015261245f81846123e5565b905095945050505050565b60008151905061247981611b6c565b92915050565b60006020828403121561249557612494611b36565b5b60006124a38482850161246a565b91505092915050565b60008190508160005260206000209050919050565b60006020601f8301049050919050565b600082821b905092915050565b60006008830261250e7fffffffffffffffffffffffffffffffffffffffffffffffffffffffffffffffff826124d1565b61251886836124d1565b95508019841693508086168417925050509392505050565b6000819050919050565b600061255561255061254b84611cad565b612530565b611cad565b9050919050565b6000819050919050565b61256f8361253a565b61258361257b8261255c565b8484546124de565b825550505050565b600090565b61259861258b565b6125a3818484612566565b505050565b5b818110156125c7576125bc600082612590565b6001810190506125a9565b5050565b601f82111561260c576125dd816124ac565b6125e6846124c1565b810160208510156125f5578190505b612609612601856124c1565b8301826125a8565b50505b505050565b600082821c905092915050565b600061262f60001984600802612611565b1980831691505092915050565b6000612648838361261e565b9150826002028217905092915050565b61266182611bfb565b67ffffffffffffffff81111561267a57612679611ef8565b5b6126848254612212565b61268f8282856125cb565b600060209050601f8311600181146126c257600084156126b0578287015190505b6126ba858261263c565b865550612722565b601f1984166126d0866124ac565b60005b828110156126f8578489015182556001820191506020850194506020810190506126d3565b868310156127155784890151612711601f89168261261e565b8355505b6001600288020188555050505b505050505050565b600060408201905061273f6000830185611d42565b61274c6020830184611e58565b939250505056fea2646970667358221220e047750a54842d0dfbc11cd3b43f25e7dbfc04f6d25857e3427483469b43670b64736f6c63430008160033",
  "linkReferences": {},
  "deployedLinkReferences": {}
}